:100000000C9434000C9451000C9451000C94510049
:100010000C9451000C9451000C9451000C9451001C
:100020000C9451000C9451000C9451000C9451000C
:100030000C9451000C9451000C9451000C945100FC
:100040000C9451000C9451000C9451000C945100EC
:100050000C9451000C9451000C9451000C945100DC
:100060000C9451000C94510011241FBECFEFD8E026
:10007000DEBFCDBF11E0A0E0B1E0E4E9F8E002C0EE
:1000800005900D92AC30B107D9F721E0ACE0B1E0BA
:1000900001C01D92A231B207E1F70E9432030C9415
:1000A00048040C940000982F9F7080FD589A80FFA0
:1000B000589891FB882780F980FD599A80FF5998BC
:1000C00092FB882780F980FD5A9A80FF5A9896956E
:1000D0009695969590FD5B9A90FF5B985D9A0000CF
:1000E0005D980895CF93C82F8FEC97E00197F1F7B3
:1000F00000C000008C2F82958F700E9453008C2FBF
:100100008F70CF910C9453005D985C9881E00E94B1
:1001100072008FE99FE00197F1F700C00000089599
:100120001F93CF93DF9300D0CDB7DEB7182F2FEFFB
:1001300089EF90E0215080409040E1F700C000003E
:100140005D985C9883E049836A830E945300EFE0E6
:10015000F7E23197F1F700C0000083E00E945300FE
:100160008FE097E20197F1F700C0000083E00E9462
:100170005300EFE0F7E23197F1F700C0000082E0B2
:100180000E945300812F0E94720081E00E94720041
:100190004981842F0E9472006A81862F0F900F90F0
:1001A000DF91CF911F910C9472005D985C980C9434
:1001B00072005D985C9A0C947200CF93DF93EC010F
:1001C0008991882319F00E94D900FACFDF91CF914D
:1001D0000895EF92FF920F931F93CF93DF9300D078
:1001E00000D01F92CDB7DEB7FE0131967F012AE025
:1001F00030E08F010E191F09B9010E94F8038193A5
:10020000CB010097B1F7F701E00FF11F8081805D0E
:100210000E94D90001501109B0F70F900F900F9074
:100220000F900F90DF91CF911F910F91FF90EF9062
:100230000895CF93DF93EC0197FF06C08DE20E94F3
:10024000D900D195C195D109CE01DF91CF910C9400
:10025000E900CF92DF92EF92FF926B017C0197FF52
:100260000BC08DE20E94D900F094E094D094C09429
:10027000C11CD11CE11CF11CC601FF90EF90DF9066
:10028000CF900C94E9008F929F92AF92BF92CF9241
:10029000DF92EF92FF920F931F93CF93DF93CDB72F
:1002A000DEB72A970FB6F894DEBF0FBECDBF9E0112
:1002B0002F5F3F4F790169012AE0822E912CA12CFA
:1002C000B12C87010C191D09A50194010E940C0491
:1002D000F70161937F01B901CA01611571058105BB
:1002E000910579F7F601E00FF11F8081805D0E9492
:1002F000D90001501109B0F72A960FB6F894DEBF65
:100300000FBECDBFDF91CF911F910F91FF90EF9066
:10031000DF90CF90BF90AF909F908F9008951F93E4
:10032000CF93DF931F92CDB7DEB7182F662339F036
:10033000812F69830E94D90069816150F7CF0F90A6
:10034000DF91CF911F9108951F93CF93DF93162FC5
:10035000C82FD92F180F612F6C1B8991882319F092
:100360000E94D900F8CF662331F080E2DF91CF916F
:100370001F910C948F01DF91CF911F9108958130CF
:1003800019F0823019F0089590E801C090EC8FEFD9
:10039000860F890F0C94D500CF93DF93EA010E945A
:1003A000BF01CE01DF91CF910C94DD0080E40E946B
:1003B000D50080E00E94D9008FE10E94D9008FE132
:1003C0000E94D9008FE10E94D9008FE10E94D900DC
:1003D0008FE10E94D90080E00E94D90080E00E9455
:1003E000D90080E00E94D9008FE10E94D90080E10D
:1003F0000E94D90085E10E94D90080E10E94D900C5
:100400008FE10E94D90080E00E94D90080E00E9424
:10041000D90080E00E94D9008FE10E94D90088E1D4
:100420000E94D9008DE10E94D90088E10E94D90084
:100430008FE10E94D90080E00E94D90080E00E94F4
:10044000D90080E00E94D9008FE10E94D9008CE1A0
:100450000E94D9008DE10E94D9008CE10E94D90050
:100460008FE10E94D90080E00E94D90080E00E94C4
:10047000D90080E00E94D9008FE10E94D9008EE16E
:100480000E94D9008FE10E94D9008EE10E94D9001C
:100490008FE10E94D90080E00E94D90080E00E9494
:1004A000D90080E00E94D9008FE10E94D90080E04D
:1004B0000E94D90085E10E94D90080E00E94D90005
:1004C0008FE10E94D90080E00E94D90080E00C9466
:1004D000D9004F925F926F927F928F929F92AF92CC
:1004E000BF92CF92DF92EF92FF920F931F93CF9321
:1004F000DF9300D000D0CDB7DEB749015A010E948A
:10050000BF018E149F04A006B10618F06C2D80E088
:1005100038C02C2D30E0A5E0B0E00E942E049B01F5
:10052000AC01C501B4010E94E803A80197010E9433
:100530000C04CA01B90125E030E040E050E00E941F
:100540000C04B62E622F80E029833A834B835C83B0
:100550000E948F01D12CE12CF12C29813A814B8111
:100560005C81C21AD30AE40AF50ABB2041F081E09B
:10057000C81AD108E108F1088B2D0E94D9006C2D12
:1005800085E00F900F900F900F90DF91CF911F910A
:100590000F91FF90EF90DF90CF90BF90AF909F9022
:1005A0008F907F906F905F904F900C948F01EAE74F
:1005B000F0E08081806880830895EAE7F0E0808140
:1005C0008F7780830895EAE7F0E0808188608083F8
:1005D0000895EAE7F0E08081877F80830895EAE765
:1005E000F0E09081982B90830895ECE7F0E0208173
:1005F00030E2839FC0011124282B20830895ECE76B
:10060000F0E0208130E4839FC0011124282B208357
:100610000895ECE7F0E09081907F982B9083089507
:100620000E940903EAE7F0E08081806480830895F6
:100630008091790020917800229526952695237047
:1006400034E0839FC0011124822B0895209179000A
:100650008091780090E0922B08958091780090919D
:10066000790008958FEF84B98AB917B846E06CE035
:1006700088E20E9490000E94D60181E00E94FF0261
:1006800087E00E94EF020E94D70280E00E941003E0
:10069000289AC1E080917A0086FD3BC085B18C2705
:1006A00085B98091780090917900A0E0B0E08093C6
:1006B0000E0190930F01A0931001B09311010E94BD
:1006C0002D03A0E0B0E080930E0190930F01A09362
:1006D0001001B093110180E00E94100320910E01DF
:1006E00030910F014091100150911101A8E8B3E140
:1006F0000E943D042AE096958795779567952A95FF
:10070000D1F760930E0170930F01809310019093C5
:10071000110140E051E061E081E00E94CC012091B4
:100720000E0130910F01409110015091110187E0AD
:10073000C82E18E8E12E13E1F12E00E010E063E08E
:1007400081E00E94690280E20E94D90080910E013E
:1007500090910F010E94190165E083E091E00E94F1
:10076000A40146E051E061E082E00E94CC012091CA
:100770000E0130910F01409110015091110163E081
:1007800082E00E94690280E20E94D90080910E01FD
:1007900090910F010E94190165E089E091E00E94AB
:1007A000A4018FEC97E00197F1F700C00000809161
:1007B0000C0190910D01019690930D0180930C0115
:1007C000059708F467CF10920D0110920C0162CFCB
:1007D000DB018F939F930E943D04BF91AF91A29F35
:1007E000800D911DA39F900DB29F900D112408952F
:1007F000AA1BBB1B51E107C0AA1FBB1FA617B70747
:1008000010F0A61BB70B881F991F5A95A9F7809562
:100810009095BC01CD010895A1E21A2EAA1BBB1B25
:10082000FD010DC0AA1FBB1FEE1FFF1FA217B307BC
:10083000E407F50720F0A21BB30BE40BF50B661FD2
:10084000771F881F991F1A9469F760957095809596
:1008500090959B01AC01BD01CF010895A29FB0010D
:10086000B39FC001A39F700D811D1124911DB29FE4
:10087000700D811D1124911D08950E942E04A59FC5
:10088000900DB49F900DA49F800D911D112408958B
:04089000F894FFCF0A
:0C0894005520006D56004920006D410009
:00000001FF
