:100000000C9434000C9446000C9446000C9463034A
:100010000C9446000C9446000C9446000C94460048
:100020000C9446000C9446000C9446000C94460038
:100030000C9446000C9446000C94CC020C944600A0
:100040000C9446000C9446000C9446000C94460018
:100050000C9446000C9446000C9446000C94460008
:100060000C9446000C94460011241FBECFEFD8E03C
:10007000DEBFCDBF21E0A0E0B1E001C01D92A23102
:10008000B207E1F70E9474030C94AC040C940000D6
:10009000982F9F7080FD589A80FF589891FB882771
:1000A00080F980FD599A80FF599892FB882780F942
:1000B00080FD5A9A80FF5A9896959695969590FD50
:1000C0005B9A90FF5B985D9A00005D980895CF93CE
:1000D000C82F8FEC97E00197F1F700C000008C2F3C
:1000E00082958F700E9448008C2F8F70CF910C9456
:1000F00048005D985C9881E00E9467008FE99FE06E
:100100000197F1F700C0000008951F93CF93DF938C
:1001100000D0CDB7DEB7182F2FEF89EF90E0215038
:1001200080409040E1F700C000005D985C9883E05B
:1001300049836A830E944800EFE0F7E23197F1F7C4
:1001400000C0000083E00E9448008FE097E2019722
:10015000F1F700C0000083E00E944800EFE0F7E202
:100160003197F1F700C0000082E00E944800812F23
:100170000E94670081E00E9467004981842F0E94ED
:1001800067006A81862F0F900F90DF91CF911F91AA
:100190000C9467005D985C980C9467005D985C9A7D
:1001A0000C946700CF93DF93EC018991882319F0B9
:1001B0000E94CE00FACFDF91CF910895EF92FF9287
:1001C0000F931F93CF93DF9300D000D01F92CDB732
:1001D000DEB7FE0131967F012AE030E08F010E1973
:1001E0001F09B9010E945C048193CB010097B1F70C
:1001F000F701E00FF11F8081805D0E94CE00015069
:100200001109B0F70F900F900F900F900F90DF91A2
:10021000CF911F910F91FF90EF900895CF93DF93AF
:10022000EC0197FF06C08DE20E94CE00D195C195EA
:10023000D109CE01DF91CF910C94DE00CF92DF92F5
:10024000EF92FF926B017C0197FF0BC08DE20E9441
:10025000CE00F094E094D094C094C11CD11CE11C59
:10026000F11CC601FF90EF90DF90CF900C94DE0060
:100270008F929F92AF92BF92CF92DF92EF92FF92B6
:100280000F931F93CF93DF93CDB7DEB72A970FB6A7
:10029000F894DEBF0FBECDBF9E012F5F3F4F7901A7
:1002A00069012AE0822E912CA12CB12C87010C1916
:1002B0001D09A50194010E947004F70161937F015B
:1002C000B901CA01611571058105910579F7F6013A
:1002D000E00FF11F8081805D0E94CE000150110966
:1002E000B0F72A960FB6F894DEBF0FBECDBFDF91F0
:1002F000CF911F910F91FF90EF90DF90CF90BF9023
:10030000AF909F908F9008951F93CF93DF931F928C
:10031000CDB7DEB7182F662339F0812F69830E948D
:10032000CE0069816150F7CF0F90DF91CF911F917F
:1003300008951F93CF93DF93162FC82FD92F180F2F
:10034000612F6C1B8991882319F00E94CE00F8CF91
:10035000662331F080E2DF91CF911F910C948401EC
:10036000DF91CF911F910895813019F0823019F0FB
:10037000089590E801C090EC8FEF860F890F0C94E0
:10038000CA00CF93DF93EA010E94B401CE01DF914E
:10039000CF910C94D20080E40E94CA0080E00E94B9
:1003A000CE008FE10E94CE008FE10E94CE008FE14F
:1003B0000E94CE008FE10E94CE008FE10E94CE000D
:1003C00080E00E94CE0080E00E94CE0080E00E948B
:1003D000CE008FE10E94CE0080E10E94CE0085E138
:1003E0000E94CE0080E10E94CE008FE10E94CE00EC
:1003F00080E00E94CE0080E00E94CE0080E00E945B
:10040000CE008FE10E94CE0088E10E94CE008DE1F7
:100410000E94CE0088E10E94CE008FE10E94CE00B3
:1004200080E00E94CE0080E00E94CE0080E00E942A
:10043000CE008FE10E94CE008CE10E94CE008DE1C3
:100440000E94CE008CE10E94CE008FE10E94CE007F
:1004500080E00E94CE0080E00E94CE0080E00E94FA
:10046000CE008FE10E94CE008EE10E94CE008FE18F
:100470000E94CE008EE10E94CE008FE10E94CE004D
:1004800080E00E94CE0080E00E94CE0080E00E94CA
:10049000CE008FE10E94CE0080E00E94CE0085E178
:1004A0000E94CE0080E00E94CE008FE10E94CE002C
:1004B00080E00E94CE0080E00C94CE004F925F92CC
:1004C0006F927F928F929F92AF92BF92CF92DF9264
:1004D000EF92FF920F931F93CF93DF9300D000D042
:1004E000CDB7DEB749015A010E94B4018E149F04B2
:1004F000A006B10618F06C2D80E038C02C2D30E03D
:10050000A5E0B0E00E9492049B01AC01C501B401DA
:100510000E944C04A80197010E947004CA01B9010D
:1005200025E030E040E050E00E947004B62E622FDB
:1005300080E029833A834B835C830E948401D12C21
:10054000E12CF12C29813A814B815C81C21AD30ABA
:10055000E40AF50ABB2041F081E0C81AD108E1089D
:10056000F1088B2D0E94CE006C2D85E00F900F902E
:100570000F900F90DF91CF911F910F91FF90EF900F
:10058000DF90CF90BF90AF909F908F907F906F90B3
:100590005F904F900C9484011F920F920FB60F92B0
:1005A00011242F933F934F935F936F937F938F9378
:1005B0009F93EF936091080170910901E0911101FF
:1005C0004E2F417050E0460F571F50930901409342
:1005D000080140910601509107016091110161FBF2
:1005E000222720F930E0240F351F30930701209394
:1005F000060120910401309105014091110142FB57
:10060000882780F990E0820F931F909305018093D3
:1006100004018091020190910301019690930301DE
:100620008093020180910801909109010A9748F096
:10063000109209011092080180910F01816080934E
:100640000F018091060190910701843F914070F065
:10065000109207011092060180910F018260809331
:100660000F01809111018460809311018091040138
:10067000909105010A9748F010920501109204012B
:1006800080910F01826080930F018091020190910F
:100690000301883E934048F010920301109202013A
:1006A00080910E01865F80930E01EF919F918F9153
:1006B0007F916F915F914F913F912F910F900FBE5E
:1006C0000F901F9018951F920F920FB60F92112442
:1006D0008F93809110018160809310018F910F9012
:1006E0000FBE0F901F90189514B818B88FEF8AB9E5
:1006F00046E06CE088E20E9485000E94CB01809178
:10070000680081608093680080916B0081608093B5
:100710006B0084B5826084BD85E987BD80916E00E1
:10072000826080936E0085B5836085BD78948091EA
:100730000A0190910B01A0910C01B0910D0181383B
:100740009649A849B10540F010920A0110920B0198
:1007500010920C0110920D0161E081E00E94B40141
:1007600060910A0170910B0180910C0190910D0133
:100770000E94380120910A0130910B0140910C0137
:1007800050910D0180E1C82E10E8E12E16E9F12EFE
:1007900008E910E061E082E00E945E026AE080E227
:1007A0000E9484018091100180FF16C08091100189
:1007B0008E7F80931001189B0FC08FE59AEE0197F2
:1007C000F1F700C00000189B07C010920E01809145
:1007D000110181608093110180910F0180FF32C06F
:1007E00080910F018E7F80930F01189926C0809110
:1007F0000A0190910B01A0910C01B0910D01805B59
:100800009C43AF4FBF4F80930A0190930B01A0937D
:100810000C01B0930D01809111018E7F8093110125
:10082000109209011092080110920701109206011E
:10083000109205011092040105C08091110182609F
:100840008093110180910F0181FF71CF80910F0181
:100850008D7F80930F01189B15C080910A019091A4
:100860000B01A0910C01B0910D0180569947AE4F3C
:10087000BF4F80930A0190930B01A0930C01B0939A
:100880000D0155CF809111018B7F80931101109242
:100890000501109204014BCFDB018F939F930E94BF
:1008A000A104BF91AF91A29F800D911DA39F900DB8
:1008B000B29F900D11240895AA1BBB1B51E107C0E4
:1008C000AA1FBB1FA617B70710F0A61BB70B881FE0
:1008D000991F5A95A9F780959095BC01CD0108956F
:1008E000A1E21A2EAA1BBB1BFD010DC0AA1FBB1F34
:1008F000EE1FFF1FA217B307E407F50720F0A21BA6
:10090000B30BE40BF50B661F771F881F991F1A9412
:1009100069F760957095809590959B01AC01BD013C
:10092000CF010895A29FB001B39FC001A39F700D96
:10093000811D1124911DB29F700D811D1124911DE7
:1009400008950E949204A59F900DB49F900DA49FBE
:0C095000800D911D11240895F894FFCF34
:00000001FF
