:100000000C9434000C9451000C9451000C94510049
:100010000C9451000C9451000C9451000C9451001C
:100020000C9451000C9451000C9451000C9451000C
:100030000C9451000C9451000C9451000C945100FC
:100040000C9451000C9451000C9451000C945100EC
:100050000C9451000C9451000C9451000C945100DC
:100060000C9451000C94510011241FBECFEFD8E026
:10007000DEBFCDBF11E0A0E0B1E0E2EBF1E002C0F5
:1000800005900D92AE30B107D9F721E0AEE0B1E0B6
:1000900001C01D92A032B207E1F70E94C0000C948B
:1000A000D7000C940000519A50981092C50080938C
:1000B000C4000895E1ECF0E08081886080830895B9
:1000C000E1ECF0E08081877F80830895E1ECF0E04F
:1000D0008081806180830895E1ECF0E080818F7EF3
:1000E00080830895E1ECF0E080818064808308954E
:1000F000E1ECF0E080818F7B80830895E1ECF0E01B
:100100008081806880830895E1ECF0E080818F77C2
:10011000808308959091C00095FFFCCF8093C60026
:1001200008958091C00087FFFCCF8091C60008959C
:10013000CF93DF93EC018991882319F00E948A0004
:10014000FACFDF91CF910895CF93DF938EE091E0C6
:1001500090931F0180931E01C0911E01D0911F0139
:100160000E94910088838A3031F02196D0931F013C
:10017000C0931E01F1CF8EE091E0DF91CF91089501
:1001800083E390E00E9453000E945A000E946600A0
:1001900080E091E00E9498000E94A4000E949800D4
:1001A0008DE00E948A008AE00E948A00F5CFF894D0
:0201B000FFCF7F
:0E01B20048656C6C6F20776F726C64210000E2
:00000001FF
